{"abi":[{"type":"constructor","inputs":[],"stateMutability":"nonpayable"},{"type":"fallback","stateMutability":"payable"},{"type":"receive","stateMutability":"payable"},{"type":"function","name":"SEPOLIA_CHAIN_ID","inputs":[],"outputs":[{"name":"","type":"uint256","internalType":"uint256"}],"stateMutability":"view"},{"type":"function","name":"emergencyWithdraw","inputs":[],"outputs":[],"stateMutability":"nonpayable"},{"type":"function","name":"fulfillIntent","inputs":[{"name":"intentId","type":"bytes32","internalType":"bytes32"},{"name":"recipient","type":"address","internalType":"address"},{"name":"minAmount","type":"uint256","internalType":"uint256"},{"name":"deadline","type":"uint256","internalType":"uint256"}],"outputs":[],"stateMutability":"payable"},{"type":"function","name":"fulfilled","inputs":[{"name":"","type":"bytes32","internalType":"bytes32"}],"outputs":[{"name":"","type":"bool","internalType":"bool"}],"stateMutability":"view"},{"type":"function","name":"owner","inputs":[],"outputs":[{"name":"","type":"address","internalType":"address"}],"stateMutability":"view"},{"type":"event","name":"EmergencyWithdraw","inputs":[{"name":"owner","type":"address","indexed":true,"internalType":"address"},{"name":"amount","type":"uint256","indexed":false,"internalType":"uint256"}],"anonymous":false},{"type":"event","name":"IntentFulfilled","inputs":[{"name":"intentId","type":"bytes32","indexed":true,"internalType":"bytes32"},{"name":"recipient","type":"address","indexed":true,"internalType":"address"},{"name":"amount","type":"uint256","indexed":false,"internalType":"uint256"},{"name":"deadline","type":"uint256","indexed":false,"internalType":"uint256"},{"name":"timestamp","type":"uint256","indexed":false,"internalType":"uint256"}],"anonymous":false}],"bytecode":{"object":"0x60a060405234801561000f575f5ffd5b5062aa36a74614610055576040517f08c379a000000000000000000000000000000000000000000000000000000000815260040161004c906100e8565b60405180910390fd5b3373ffffffffffffffffffffffffffffffffffffffff1660808173ffffffffffffffffffffffffffffffffffffffff1681525050610106565b5f82825260208201905092915050565b7f426c65657046756c66696c6c3a2077726f6e6720636861696e000000000000005f82015250565b5f6100d260198361008e565b91506100dd8261009e565b602082019050919050565b5f6020820190508181035f8301526100ff816100c6565b9050919050565b608051610edc6101335f395f81816104720152818161049d015281816105b7015261067e0152610edc5ff3fe60806040526004361061004d575f3560e01c80632aa91bfd146100c857806363932fae146101045780638da5cb5b146101205780639db1e6051461014a578063db2e21bc146101745761008d565b3661008d576040517f08c379a00000000000000000000000000000000000000000000000000000000081526004016100849061076e565b60405180910390fd5b6040517f08c379a00000000000000000000000000000000000000000000000000000000081526004016100bf906107fc565b60405180910390fd5b3480156100d3575f5ffd5b506100ee60048036038101906100e99190610851565b61018a565b6040516100fb9190610896565b60405180910390f35b61011e6004803603810190610119919061093c565b6101a6565b005b34801561012b575f5ffd5b50610134610470565b60405161014191906109af565b60405180910390f35b348015610155575f5ffd5b5061015e610494565b60405161016b91906109d7565b60405180910390f35b34801561017f575f5ffd5b5061018861049b565b005b5f602052805f5260405f205f915054906101000a900460ff1681565b62aa36a746146101eb576040517f08c379a00000000000000000000000000000000000000000000000000000000081526004016101e290610a3a565b60405180910390fd5b5f73ffffffffffffffffffffffffffffffffffffffff168373ffffffffffffffffffffffffffffffffffffffff1603610259576040517f08c379a000000000000000000000000000000000000000000000000000000000815260040161025090610aa2565b60405180910390fd5b5f5f8581526020019081526020015f205f9054906101000a900460ff16156102b6576040517f08c379a00000000000000000000000000000000000000000000000000000000081526004016102ad90610b30565b60405180910390fd5b813410156102f9576040517f08c379a00000000000000000000000000000000000000000000000000000000081526004016102f090610bbe565b60405180910390fd5b5f8114806103075750804211155b610346576040517f08c379a000000000000000000000000000000000000000000000000000000000815260040161033d90610c26565b60405180910390fd5b60015f5f8681526020019081526020015f205f6101000a81548160ff0219169083151502179055505f8373ffffffffffffffffffffffffffffffffffffffff163460405161039390610c71565b5f6040518083038185875af1925050503d805f81146103cd576040519150601f19603f3d011682016040523d82523d5f602084013e6103d2565b606091505b5050905080610416576040517f08c379a000000000000000000000000000000000000000000000000000000000815260040161040d90610ccf565b60405180910390fd5b8373ffffffffffffffffffffffffffffffffffffffff16857f7211da5fbb29b12bb1346188de7df83166a26ca5a4da05212ef476b81c76252134854260405161046193929190610ced565b60405180910390a35050505050565b7f000000000000000000000000000000000000000000000000000000000000000081565b62aa36a781565b7f000000000000000000000000000000000000000000000000000000000000000073ffffffffffffffffffffffffffffffffffffffff163373ffffffffffffffffffffffffffffffffffffffff1614610529576040517f08c379a000000000000000000000000000000000000000000000000000000000815260040161052090610d92565b60405180910390fd5b62aa36a7461461056e576040517f08c379a000000000000000000000000000000000000000000000000000000000815260040161056590610a3a565b60405180910390fd5b5f4790505f81116105b4576040517f08c379a00000000000000000000000000000000000000000000000000000000081526004016105ab90610e20565b60405180910390fd5b5f7f000000000000000000000000000000000000000000000000000000000000000073ffffffffffffffffffffffffffffffffffffffff16826040516105f990610c71565b5f6040518083038185875af1925050503d805f8114610633576040519150601f19603f3d011682016040523d82523d5f602084013e610638565b606091505b505090508061067c576040517f08c379a000000000000000000000000000000000000000000000000000000000815260040161067390610e88565b60405180910390fd5b7f000000000000000000000000000000000000000000000000000000000000000073ffffffffffffffffffffffffffffffffffffffff167f5fafa99d0643513820be26656b45130b01e1c03062e1266bf36f88cbd3bd9695836040516106e291906109d7565b60405180910390a25050565b5f82825260208201905092915050565b7f426c65657046756c66696c6c3a20646972656374206465706f7369747320666f5f8201527f7262696464656e00000000000000000000000000000000000000000000000000602082015250565b5f6107586027836106ee565b9150610763826106fe565b604082019050919050565b5f6020820190508181035f8301526107858161074c565b9050919050565b7f426c65657046756c66696c6c3a206469726563742063616c6c7320666f7262695f8201527f6464656e00000000000000000000000000000000000000000000000000000000602082015250565b5f6107e66024836106ee565b91506107f18261078c565b604082019050919050565b5f6020820190508181035f830152610813816107da565b9050919050565b5f5ffd5b5f819050919050565b6108308161081e565b811461083a575f5ffd5b50565b5f8135905061084b81610827565b92915050565b5f602082840312156108665761086561081a565b5b5f6108738482850161083d565b91505092915050565b5f8115159050919050565b6108908161087c565b82525050565b5f6020820190506108a95f830184610887565b92915050565b5f73ffffffffffffffffffffffffffffffffffffffff82169050919050565b5f6108d8826108af565b9050919050565b6108e8816108ce565b81146108f2575f5ffd5b50565b5f81359050610903816108df565b92915050565b5f819050919050565b61091b81610909565b8114610925575f5ffd5b50565b5f8135905061093681610912565b92915050565b5f5f5f5f608085870312156109545761095361081a565b5b5f6109618782880161083d565b9450506020610972878288016108f5565b935050604061098387828801610928565b925050606061099487828801610928565b91505092959194509250565b6109a9816108ce565b82525050565b5f6020820190506109c25f8301846109a0565b92915050565b6109d181610909565b82525050565b5f6020820190506109ea5f8301846109c8565b92915050565b7f426c65657046756c66696c6c3a2077726f6e6720636861696e000000000000005f82015250565b5f610a246019836106ee565b9150610a2f826109f0565b602082019050919050565b5f6020820190508181035f830152610a5181610a18565b9050919050565b7f426c65657046756c66696c6c3a20696e76616c696420726563697069656e74005f82015250565b5f610a8c601f836106ee565b9150610a9782610a58565b602082019050919050565b5f6020820190508181035f830152610ab981610a80565b9050919050565b7f426c65657046756c66696c6c3a20696e74656e7420616c72656164792066696c5f8201527f6c65640000000000000000000000000000000000000000000000000000000000602082015250565b5f610b1a6023836106ee565b9150610b2582610ac0565b604082019050919050565b5f6020820190508181035f830152610b4781610b0e565b9050919050565b7f426c65657046756c66696c6c3a20616d6f756e742062656c6f77206d696e696d5f8201527f756d000000000000000000000000000000000000000000000000000000000000602082015250565b5f610ba86022836106ee565b9150610bb382610b4e565b604082019050919050565b5f6020820190508181035f830152610bd581610b9c565b9050919050565b7f426c65657046756c66696c6c3a20646561646c696e65207061737365640000005f82015250565b5f610c10601d836106ee565b9150610c1b82610bdc565b602082019050919050565b5f6020820190508181035f830152610c3d81610c04565b9050919050565b5f81905092915050565b50565b5f610c5c5f83610c44565b9150610c6782610c4e565b5f82019050919050565b5f610c7b82610c51565b9150819050919050565b7f426c65657046756c66696c6c3a207472616e73666572206661696c65640000005f82015250565b5f610cb9601d836106ee565b9150610cc482610c85565b602082019050919050565b5f6020820190508181035f830152610ce681610cad565b9050919050565b5f606082019050610d005f8301866109c8565b610d0d60208301856109c8565b610d1a60408301846109c8565b949350505050565b7f426c65657046756c66696c6c3a2063616c6c6572206973206e6f7420746865205f8201527f6f776e6572000000000000000000000000000000000000000000000000000000602082015250565b5f610d7c6025836106ee565b9150610d8782610d22565b604082019050919050565b5f6020820190508181035f830152610da981610d70565b9050919050565b7f426c65657046756c66696c6c3a206e6f2062616c616e636520746f20776974685f8201527f6472617700000000000000000000000000000000000000000000000000000000602082015250565b5f610e0a6024836106ee565b9150610e1582610db0565b604082019050919050565b5f6020820190508181035f830152610e3781610dfe565b9050919050565b7f426c65657046756c66696c6c3a207769746864726177206661696c65640000005f82015250565b5f610e72601d836106ee565b9150610e7d82610e3e565b602082019050919050565b5f6020820190508181035f830152610e9f81610e66565b905091905056fea2646970667358221220f394f008b690e880e8af9bc161030bde19701b6df56e8cd542992f2ca861b11164736f6c63430008230033","linkReferences":{}},"methodIdentifiers":{"SEPOLIA_CHAIN_ID()":"9db1e605","emergencyWithdraw()":"db2e21bc","fulfillIntent(bytes32,address,uint256,uint256)":"63932fae","fulfilled(bytes32)":"2aa91bfd","owner()":"8da5cb5b"},"id":16}