{"abi":[{"type":"constructor","inputs":[],"stateMutability":"nonpayable"},{"type":"fallback","stateMutability":"payable"},{"type":"receive","stateMutability":"payable"},{"type":"function","name":"emergencyWithdraw","inputs":[],"outputs":[],"stateMutability":"nonpayable"},{"type":"function","name":"fulfillIntent","inputs":[{"name":"intentId","type":"bytes32","internalType":"bytes32"},{"name":"recipient","type":"address","internalType":"address"},{"name":"minAmount","type":"uint256","internalType":"uint256"},{"name":"deadline","type":"uint256","internalType":"uint256"}],"outputs":[],"stateMutability":"payable"},{"type":"function","name":"fulfilled","inputs":[{"name":"","type":"bytes32","internalType":"bytes32"}],"outputs":[{"name":"","type":"bool","internalType":"bool"}],"stateMutability":"view"},{"type":"function","name":"owner","inputs":[],"outputs":[{"name":"","type":"address","internalType":"address"}],"stateMutability":"view"},{"type":"event","name":"EmergencyWithdraw","inputs":[{"name":"owner","type":"address","indexed":true,"internalType":"address"},{"name":"amount","type":"uint256","indexed":false,"internalType":"uint256"}],"anonymous":false},{"type":"event","name":"IntentFulfilled","inputs":[{"name":"intentId","type":"bytes32","indexed":true,"internalType":"bytes32"},{"name":"recipient","type":"address","indexed":true,"internalType":"address"},{"name":"amount","type":"uint256","indexed":false,"internalType":"uint256"},{"name":"deadline","type":"uint256","indexed":false,"internalType":"uint256"},{"name":"timestamp","type":"uint256","indexed":false,"internalType":"uint256"}],"anonymous":false}],"bytecode":{"object":"0x60a0604052348015600e575f5ffd5b503373ffffffffffffffffffffffffffffffffffffffff1660808173ffffffffffffffffffffffffffffffffffffffff1681525050608051610e466100705f395f81816103f80152818161041c015281816104f101526105b80152610e465ff3fe608060405260043610610042575f3560e01c80632aa91bfd146100bd57806363932fae146100f95780638da5cb5b14610115578063db2e21bc1461013f57610082565b36610082576040517f08c379a0000000000000000000000000000000000000000000000000000000008152600401610079906106a8565b60405180910390fd5b6040517f08c379a00000000000000000000000000000000000000000000000000000000081526004016100b490610736565b60405180910390fd5b3480156100c8575f5ffd5b506100e360048036038101906100de919061078b565b610155565b6040516100f091906107d0565b60405180910390f35b610113600480360381019061010e9190610876565b610171565b005b348015610120575f5ffd5b506101296103f6565b60405161013691906108e9565b60405180910390f35b34801561014a575f5ffd5b5061015361041a565b005b5f602052805f5260405f205f915054906101000a900460ff1681565b5f73ffffffffffffffffffffffffffffffffffffffff168373ffffffffffffffffffffffffffffffffffffffff16036101df576040517f08c379a00000000000000000000000000000000000000000000000000000000081526004016101d690610972565b60405180910390fd5b5f5f8581526020019081526020015f205f9054906101000a900460ff161561023c576040517f08c379a000000000000000000000000000000000000000000000000000000000815260040161023390610a00565b60405180910390fd5b8134101561027f576040517f08c379a000000000000000000000000000000000000000000000000000000000815260040161027690610a8e565b60405180910390fd5b5f81148061028d5750804211155b6102cc576040517f08c379a00000000000000000000000000000000000000000000000000000000081526004016102c390610b1c565b60405180910390fd5b60015f5f8681526020019081526020015f205f6101000a81548160ff0219169083151502179055505f8373ffffffffffffffffffffffffffffffffffffffff163460405161031990610b67565b5f6040518083038185875af1925050503d805f8114610353576040519150601f19603f3d011682016040523d82523d5f602084013e610358565b606091505b505090508061039c576040517f08c379a000000000000000000000000000000000000000000000000000000000815260040161039390610beb565b60405180910390fd5b8373ffffffffffffffffffffffffffffffffffffffff16857f7211da5fbb29b12bb1346188de7df83166a26ca5a4da05212ef476b81c7625213485426040516103e793929190610c18565b60405180910390a35050505050565b7f000000000000000000000000000000000000000000000000000000000000000081565b7f000000000000000000000000000000000000000000000000000000000000000073ffffffffffffffffffffffffffffffffffffffff163373ffffffffffffffffffffffffffffffffffffffff16146104a8576040517f08c379a000000000000000000000000000000000000000000000000000000000815260040161049f90610cbd565b60405180910390fd5b5f4790505f81116104ee576040517f08c379a00000000000000000000000000000000000000000000000000000000081526004016104e590610d4b565b60405180910390fd5b5f7f000000000000000000000000000000000000000000000000000000000000000073ffffffffffffffffffffffffffffffffffffffff168260405161053390610b67565b5f6040518083038185875af1925050503d805f811461056d576040519150601f19603f3d011682016040523d82523d5f602084013e610572565b606091505b50509050806105b6576040517f08c379a00000000000000000000000000000000000000000000000000000000081526004016105ad90610dd9565b60405180910390fd5b7f000000000000000000000000000000000000000000000000000000000000000073ffffffffffffffffffffffffffffffffffffffff167f5fafa99d0643513820be26656b45130b01e1c03062e1266bf36f88cbd3bd96958360405161061c9190610df7565b60405180910390a25050565b5f82825260208201905092915050565b7f426c65657046756c66696c6c546573743a20646972656374206465706f7369745f8201527f7320666f7262696464656e000000000000000000000000000000000000000000602082015250565b5f610692602b83610628565b915061069d82610638565b604082019050919050565b5f6020820190508181035f8301526106bf81610686565b9050919050565b7f426c65657046756c66696c6c546573743a206469726563742063616c6c7320665f8201527f6f7262696464656e000000000000000000000000000000000000000000000000602082015250565b5f610720602883610628565b915061072b826106c6565b604082019050919050565b5f6020820190508181035f83015261074d81610714565b9050919050565b5f5ffd5b5f819050919050565b61076a81610758565b8114610774575f5ffd5b50565b5f8135905061078581610761565b92915050565b5f602082840312156107a05761079f610754565b5b5f6107ad84828501610777565b91505092915050565b5f8115159050919050565b6107ca816107b6565b82525050565b5f6020820190506107e35f8301846107c1565b92915050565b5f73ffffffffffffffffffffffffffffffffffffffff82169050919050565b5f610812826107e9565b9050919050565b61082281610808565b811461082c575f5ffd5b50565b5f8135905061083d81610819565b92915050565b5f819050919050565b61085581610843565b811461085f575f5ffd5b50565b5f813590506108708161084c565b92915050565b5f5f5f5f6080858703121561088e5761088d610754565b5b5f61089b87828801610777565b94505060206108ac8782880161082f565b93505060406108bd87828801610862565b92505060606108ce87828801610862565b91505092959194509250565b6108e381610808565b82525050565b5f6020820190506108fc5f8301846108da565b92915050565b7f426c65657046756c66696c6c546573743a20696e76616c6964207265636970695f8201527f656e740000000000000000000000000000000000000000000000000000000000602082015250565b5f61095c602383610628565b915061096782610902565b604082019050919050565b5f6020820190508181035f83015261098981610950565b9050919050565b7f426c65657046756c66696c6c546573743a20696e74656e7420616c72656164795f8201527f2066696c6c656400000000000000000000000000000000000000000000000000602082015250565b5f6109ea602783610628565b91506109f582610990565b604082019050919050565b5f6020820190508181035f830152610a17816109de565b9050919050565b7f426c65657046756c66696c6c546573743a20616d6f756e742062656c6f77206d5f8201527f696e696d756d0000000000000000000000000000000000000000000000000000602082015250565b5f610a78602683610628565b9150610a8382610a1e565b604082019050919050565b5f6020820190508181035f830152610aa581610a6c565b9050919050565b7f426c65657046756c66696c6c546573743a20646561646c696e652070617373655f8201527f6400000000000000000000000000000000000000000000000000000000000000602082015250565b5f610b06602183610628565b9150610b1182610aac565b604082019050919050565b5f6020820190508181035f830152610b3381610afa565b9050919050565b5f81905092915050565b50565b5f610b525f83610b3a565b9150610b5d82610b44565b5f82019050919050565b5f610b7182610b47565b9150819050919050565b7f426c65657046756c66696c6c546573743a207472616e73666572206661696c655f8201527f6400000000000000000000000000000000000000000000000000000000000000602082015250565b5f610bd5602183610628565b9150610be082610b7b565b604082019050919050565b5f6020820190508181035f830152610c0281610bc9565b9050919050565b610c1281610843565b82525050565b5f606082019050610c2b5f830186610c09565b610c386020830185610c09565b610c456040830184610c09565b949350505050565b7f426c65657046756c66696c6c546573743a2063616c6c6572206973206e6f74205f8201527f746865206f776e65720000000000000000000000000000000000000000000000602082015250565b5f610ca7602983610628565b9150610cb282610c4d565b604082019050919050565b5f6020820190508181035f830152610cd481610c9b565b9050919050565b7f426c65657046756c66696c6c546573743a206e6f2062616c616e636520746f205f8201527f7769746864726177000000000000000000000000000000000000000000000000602082015250565b5f610d35602883610628565b9150610d4082610cdb565b604082019050919050565b5f6020820190508181035f830152610d6281610d29565b9050919050565b7f426c65657046756c66696c6c546573743a207769746864726177206661696c655f8201527f6400000000000000000000000000000000000000000000000000000000000000602082015250565b5f610dc3602183610628565b9150610dce82610d69565b604082019050919050565b5f6020820190508181035f830152610df081610db7565b9050919050565b5f602082019050610e0a5f830184610c09565b9291505056fea26469706673582212200da88090f1b923b40b20bd111ef84a02b192d8ad6b16bd9b8f0eb8cc7b8ca1fd64736f6c63430008230033","linkReferences":{}},"methodIdentifiers":{"emergencyWithdraw()":"db2e21bc","fulfillIntent(bytes32,address,uint256,uint256)":"63932fae","fulfilled(bytes32)":"2aa91bfd","owner()":"8da5cb5b"},"id":16}